:100000000C9434000C9451000C9451000C94510049
:100010000C9451000C9451000C9451000C9451001C
:100020000C9451000C9451000C9451000C9451000C
:100030000C9451000C9451000C9451000C945100FC
:100040000C9451000C9451000C9451000C945100EC
:100050000C9451000C9451000C9451000C945100DC
:100060000C9451000C94510011241FBECFEFD8E026
:10007000DEBFCDBF11E0A0E0B1E0EEE4F1E002C0F0
:1000800005900D92A230B107D9F721E0A2E0B1E0CE
:1000900001C01D92A730B207E1F70E94A0000C94A6
:1000A000A5000C9400008FE284B915B808952FEFD5
:1000B00025B92091020131E0320F30930201822FE5
:1000C000817090E0FC01E050FF4F808190E08095CE
:1000D000909595B1892385B985B18E7F85B9189B97
:1000E0002EC010920301109204011092050110928B
:1000F000060118C0189B03C015B81899FECF80914F
:10010000030190910401A0910501B09106010196AF
:10011000A11DB11D8093030190930401A0930501DB
:10012000B09306018091030190910401A091050113
:10013000B09106018032914AA740B105D8F20895E6
:0E0140000E9453000E945700FDCFF894FFCF9D
:02014E002A0C79
:00000001FF
