S01300004C45445F636F6E74726F6C2E73726563DC
S11300000C9434000C9451000C9451000C94510045
S11300100C9451000C9451000C9451000C94510018
S11300200C9451000C9451000C9451000C94510008
S11300300C9451000C9451000C9451000C945100F8
S11300400C9451000C9451000C9451000C945100E8
S11300500C9451000C9451000C9451000C945100D8
S11300600C9451000C94510011241FBECFEFD8E022
S1130070DEBFCDBF11E0A0E0B1E0E2E2F1E002C0FA
S113008005900D92A230B107D9F721E0A2E0B1E0CA
S113009001C01D92A330B207E1F70E948A000C94BC
S11300A08F000C9400008FE284B915B8089525B12F
S11300B02FEF25B92091020131E0320F3093020174
S11300C0822F817090E0FC01E050FF4F808190E02E
S11300D08095909595B1892385B985B18E7F85B931
S11300E0189B0EC02FEF81EE94E021508040904089
S11300F0E1F700C00000189B03C015B81899FECFA3
S11301002FEF87EA91E6215080409040E1F700C04C
S1130110000008950E9453000E945700FDCFF894F8
S1050120FFCF0B
S10501222A0CA1
S9030000FC
