:100000000C9434000C9451000C9451000C94510049
:100010000C9451000C9451000C9451000C9451001C
:100020000C9451000C9451000C9451000C9451000C
:100030000C9451000C9451000C9451000C945100FC
:100040000C9451000C9451000C9451000C945100EC
:100050000C9451000C9451000C9451000C945100DC
:100060000C9451000C94510011241FBECFEFD8E026
:10007000DEBFCDBF11E0A0E0B1E0E0E4F1E002C0FE
:1000800005900D92A230B107D9F721E0A2E0B1E0CE
:1000900001C01D92A730B207E1F70E9499000C94AD
:1000A0009E000C9400008FE284B915B8089585B1C4
:1000B0008E7F85B9189B3CC01092030110920401F9
:1000C000109205011092060126C0189B11C015B8A8
:1000D0001899FECF8091020191E0980F9093020150
:1000E000282F217030E0F901E050FF4F808185B961
:1000F0008091030190910401A0910501B091060146
:100100000196A11DB11D8093030190930401A0935A
:100110000501B09306018091030190910401A09123
:100120000501B09106018032914AA740B10568F2FD
:1001300008950E9453000E945700FDCFF894FFCF0E
:020140002A0C87
:00000001FF
