:1000000033C000004CC000004AC0000048C00000DF
:1000100046C0000044C0000042C0000040C00000D4
:100020003EC000003CC000003AC0000038C00000E4
:1000300036C0000034C0000032C0000030C00000F4
:100040002EC000002CC0000058C1000028C00000D5
:1000500026C0000024C0000022C0000020C0000014
:100060001EC000001CC0000011241FBECFEFD8E04E
:10007000DEBFCDBF11E0A0E0B1E0ECE2FCE002C0E9
:1000800005900D92A631B107D9F721E0A6E1B1E0C4
:1000900001C01D92A931B207E1F742D1C5C5B0CF69
:1000A000CF93C82F609100018091160184608093E6
:1000B0001601DDD187EC90E00197F1F700C0000058
:1000C00080911601C295C07F609100018C2BCFD129
:1000D00060910001809116018B7F80931601C7D13A
:1000E00087EC90E00197F1F700C00000CF910895F0
:1000F000CF93C82F611109C0609100018091160152
:100100008E7F80931601B3D108C060910001809169
:100110001601816080931601AAD18C2F82958F7071
:10012000BFDF8C2FBDDFCF91089583E0B9DF8FE172
:100130009EE40197F1F700C0000083E0B1DF8FE893
:1001400091E00197F1F700C0000083E0A9DF8FE99B
:100150009FE00197F1F700C0000082E0A1DF8FE986
:100160009FE00197F1F700C0000060E088E2C0DF87
:100170008FE99FE00197F1F700C0000060E08FE099
:10018000B7DF8FE99FE00197F1F700C000006091B1
:1001900000018091160188608093160168D16091FA
:1001A0000001809116018D7F8093160160C1089532
:1001B0000F931F93CF93FC018081882369F08F01F7
:1001C000C0E061E095DFCF5FF801EC0FF11DC7FDE6
:1001D000FA9580818111F5CFCF911F910F910895EC
:1001E000662319F0613029F0089560E0806880CFBF
:1001F0000895805C60E080687BCF089560E081E0D6
:1002000077DF8FE19EE40197F1F700C000000895C9
:100210001092C50087E68093C40088E98093C100EE
:1002200086E08093C2000895E0ECF0E0908195FFB5
:10023000FDCF8093C60008951092B90088E48093A2
:10024000B800089584EA8093BC00ECEBF0E0808174
:100250008823ECF7089584E98093BC0087EC90E054
:100260000197F1F700C0000008958093BB0084E877
:100270008093BC00ECEBF0E080818823ECF70895DC
:1002800084EC8093BC00ECEBF0E080818823ECF7F9
:1002900081E4CADF8091BB00089584E88093BC00AC
:1002A000ECEBF0E080818823ECF782E4BDDF809105
:1002B000BB000895CF93DF93C82F81E3B5DFC2DF82
:1002C00080EDD3DF8C2FD1DF82E3AEDFBBDF83E3B2
:1002D000ABDF81EDCADF84E3A7DFD2DFC82FDDDF2C
:1002E000D0E0DC2FCC27C82B85E39EDFB4DF86E38C
:1002F0009BDFCE01DF91CF9108951F920F920FB631
:100300000F9211248F938091C6008093180181E091
:10031000809317018F910F900FBE0F901F9018952B
:10032000CF93DF93CDB7DEB765970FB6F894DEBFF6
:100330000FBECDBF78946CDF7FDF2FEF89EF90E0A9
:10034000215080409040E1F700C00000EEDEF894BC
:1003500055DF2FEF89EF90E0215080409040E1F78A
:1003600000C00000789407E011E06E012FE0C20E9B
:10037000D11C7E0188E0E80EF11CCE0101965C01E3
:1003800060E080E02DDF83E495DFBC01990F880BEE
:10039000990BE6D020E030E04AE753E477D09F9312
:1003A0008F937F936F931F930F93DF92CF9264D1BC
:1003B000C601FEDE60E088E013DF85E47BDFBC0180
:1003C000990F880B990BCCD020E030E04AE753E43A
:1003D0005DD09F938F937F936F931F930F93FF92A3
:1003E000EF924AD1C701E4DE61E080E0F9DE87E404
:1003F00061DFBC01990F880B990BB2D020E030E08F
:100400004AE753E443D09F938F937F936F931F9357
:100410000F93BF92AF9230D1C501CADE61E088E090
:10042000DFDE8DE091E0C4DE9FEF29E688E19150A8
:1004300020408040E1F700C000000FB6F894DEBF16
:100440000FBECDBF9DCF84EA8093BC00ECEBF0E003
:1004500080818823ECF708958093BB0084E8809323
:10046000BC00ECEBF0E080818823ECF70895CF939B
:10047000DF93C82FD62FE7DF8D2FEEDF8C2FECDF39
:1004800084E98093BC00DF91CF9108950CD0BAC06D
:10049000B2D040F0A9D030F021F45F3F19F09BC0FA
:1004A0005111E4C09EC0BFD098F39923C9F35523DE
:1004B000B1F3951B550BBB27AA2762177307840757
:1004C00038F09F5F5F4F220F331F441FAA1FA9F30D
:1004D00033D00E2E3AF0E0E830D091505040E695FF
:1004E000001CCAF729D0FE2F27D0660F771F881F60
:1004F000BB1F261737074807AB07B0E809F0BB0B4F
:10050000802DBF01FF2793585F4F2AF09E3F510572
:1005100068F061C0ABC05F3FECF3983EDCF38695BA
:1005200077956795B795F7959F5FC9F7880F911DE8
:100530009695879597F90895E1E0660F771F881FD4
:10054000BB1F621773078407BA0720F0621B730B87
:10055000840BBA0BEE1F88F7E0950895E89409C064
:1005600097FB3EF490958095709561957F4F8F4FE6
:100570009F4F9923A9F0F92F96E9BB279395F695FC
:10058000879577956795B795F111F8CFFAF4BB0F7A
:1005900011F460FF1BC06F5F7F4F8F4F9F4F16C0DE
:1005A000882311F096E911C0772321F09EE8872F68
:1005B000762F05C0662371F096E8862F70E060E024
:1005C0002AF09A95660F771F881FDAF7880F96959D
:1005D000879597F9089597F99F6780E870E060E044
:1005E00008959FEF80EC089500240A9416161706CC
:1005F00018060906089500240A9412161306140614
:1006000005060895092E0394000C11F4882352F076
:10061000BB0F40F4BF2B11F460FF04C06F5F7F4F2E
:100620008F4F9F4F089557FD9058440F551F59F015
:100630005F3F71F04795880F97FB991F61F09F3FCF
:1006400079F087950895121613061406551FF2CFF8
:100650004695F1DF08C0161617061806991FF1CF48
:1006600086957105610508940895E894BB2766276F
:100670007727CB0197F90895AEE0B0E0E1E4F3E02D
:10068000AAC20D891E8986E08C831A8309838FEFA5
:100690009FE79E838D83AE01475E5F4F6F89788DA4
:1006A000CE01019608D0EF81F885E00FF11F10828E
:1006B0002E96E4E0ACC2ABE0B0E0E0E6F3E07DC251
:1006C0006C017B018A01FC0117821682838181FF04
:1006D000BFC1CE0101963C01F6019381F70193FD64
:1006E000859193FF81917F01882309F4ADC1853203
:1006F00039F493FD859193FF81917F01853221F437
:10070000B60190E0C0D1E8CF912C212C312CFFE133
:10071000F315D8F08B3279F038F4803279F08332E7
:10072000A1F4232D20611DC08D3261F0803369F466
:10073000232D216016C0832D8260382EE32DE460C6
:100740003E2E2AC0F32DF8601DC037FC2DC020EDD1
:10075000280F2A3040F08E32B9F436FC75C1232DB3
:100760002064322E19C036FE06C08AE0989E200D05
:100770001124922E11C0EAE02E9E200D1124222E6B
:10078000F32DF0623F2E08C08C3621F4832D806853
:10079000382E02C0883641F4F70193FD859193FF0E
:1007A00081917F018111B3CF982F9F7D9554933014
:1007B00028F40C5F1F4F9FE399830DC0833631F0FF
:1007C000833771F0833509F055C020C0F80180816E
:1007D00089830E5F1F4F88248394912C530112C08C
:1007E0002801F2E04F0E511CF801A080B18036FEC6
:1007F00003C0692D70E002C06FEF7FEFC50138D1F3
:100800004C018201F32DFF773F2E15C0280122E015
:10081000420E511CF801A080B18036FE03C0692D44
:1008200070E002C06FEF7FEFC50117D14C01F32DCF
:10083000F0683F2E820133FC19C0822D90E08816AB
:100840009906A0F4B60180E290E01DD12A94F5CF7C
:10085000F50137FC859137FE81915F01B60190E08B
:1008600012D121102A9421E0821A91088114910456
:1008700079F7E1C0843611F0893639F5F80137FE91
:1008800007C060817181828193810C5F1F4F08C016
:1008900060817181072E000C880B990B0E5F1F4F32
:1008A000F32DFF763F2E97FF09C0909580957095A8
:1008B00061957F4F8F4F9F4FF0683F2E2AE030E0C9
:1008C000A3011DD1882E861844C0853731F4232D0D
:1008D0002F7EB22E2AE030E025C0932D997FB92ECD
:1008E0008F36C1F018F4883579F0AEC0803719F032
:1008F000883721F0A9C0E92FE061BE2EB4FE0DC0FB
:10090000FB2DF460BF2E09C034FE0AC0292F2660DB
:10091000B22E06C028E030E005C020E130E002C081
:1009200020E132E0F801B7FE07C060817181828169
:1009300093810C5F1F4F06C06081718180E090E061
:100940000E5F1F4FA301DBD0882E8618FB2DFF778B
:100950003F2E36FE0DC0232D2E7FA22E891458F473
:1009600034FE0BC032FC09C0832D8E7EA82E05C03C
:10097000B82CA32C03C0B82C01C0B92CA4FE0FC006
:10098000FE01E80DF11D8081803321F49A2D997EBE
:10099000A92E09C0A2FE06C0B394B39404C08A2D48
:1009A000867809F0B394A3FC10C0A0FE06C0B21470
:1009B00080F4280C922C9B180DC0B21458F4B60188
:1009C00080E290E060D0B394F8CFB21418F42B1802
:1009D00002C0982C212CA4FE0FC0B60180E390E049
:1009E00052D0A2FE16C0A1FC03C088E790E002C06E
:1009F00088E590E0B6010CC08A2D867851F0A1FE02
:100A000002C08BE201C080E2A7FC8DE2B60190E05B
:100A10003AD0891430F4B60180E390E034D09A944F
:100A2000F8CF8A94F301E80DF11D8081B60190E0C2
:100A30002AD08110F6CF222009F44ECEB60180E2F2
:100A400090E021D02A94F7CFF6018681978102C0E9
:100A50008FEF9FEF2B96E2E1CCC0FC010590615037
:100A600070400110D8F7809590958E0F9F1F0895C4
:100A7000FC016150704001900110D8F7809590956D
:100A80008E0F9F1F08950F931F93CF93DF93FB014A
:100A9000238121FD03C08FEF9FEF2CC022FF16C0E2
:100AA00046815781248135814217530744F4A08140
:100AB000B1819D012F5F3F4F318320838C9326812D
:100AC00037812F5F3F4F3783268314C08B01EC01A2
:100AD000FB010084F185E02D0995892BE1F6D80111
:100AE00016968D919C911797019617969C938E93CD
:100AF0001697CE01DF91CF911F910F910895FA01C2
:100B0000AA27283051F1203181F1E8946F936E7F4C
:100B10006E5F7F4F8F4F9F4FAF4FB1E03ED0B4E03D
:100B20003CD0670F781F891F9A1FA11D680F791F7E
:100B30008A1F911DA11D6A0F711D811D911DA11D8F
:100B400020D009F468943F912AE0269F112430199F
:100B5000305D3193DEF6CF010895462F4770405D3A
:100B60004193B3E00FD0C9F7F6CF462F4F70405DE9
:100B70004A3318F0495D31FD4052419302D0A9F744
:100B8000EACFB4E0A6959795879577956795BA953E
:100B9000C9F700976105710508959B01AC010A2E04
:100BA00006945795479537952795BA95C9F7620FDB
:100BB000731F841F951FA01D08952F923F924F927F
:100BC0005F926F927F928F929F92AF92BF92CF92DD
:100BD000DF92EF92FF920F931F93CF93DF93CDB7E6
:100BE000DEB7CA1BDB0B0FB6F894DEBF0FBECDBF5E
:100BF00009942A88398848885F846E847D848C842F
:100C00009B84AA84B984C884DF80EE80FD800C8137
:100C10001B81AA81B981CE0FD11D0FB6F894DEBF1A
:0C0C20000FBECDBFED010895F894FFCF8A
:100C2C004E257320256400252B303564004759521E
:060C3C004F5F58595A00F9
:00000001FF
