:100000000C9434000C9451000C9451000C94510049
:100010000C9451000C9451000C9451000C9451001C
:100020000C9451000C9451000C9451000C9451000C
:100030000C9451000C9451000C9451000C945100FC
:100040000C9451000C9451000C9451000C945100EC
:100050000C9451000C9451000C9451000C945100DC
:100060000C9451000C94510011241FBECFEFD8E026
:10007000DEBFCDBF11E0A0E0B1E0E6EDF2E002C0EE
:1000800005900D92A232B107D9F721E0A2E2B1E0CA
:1000900001C01D92A332B207E1F70E9412010C9435
:1000A00069010C940000CF93C82FC295C07F809146
:1000B00022018460809322016EE40E94580187EC43
:1000C00090E00197F1F700C00000809122016EE4FA
:1000D0008C2B0E945801809122018B7F80932201FA
:1000E0006EE40E94580187EC90E00197F1F700C0A0
:1000F0000000CF910895CF93C82F611109C080915E
:1001000022018E7F809322016EE40E94580108C074
:10011000809122018160809322016EE40E94580147
:100120008C2F82958F700E9453008C2F0E94530059
:10013000CF91089583E00E9453008FE19EE40197E0
:10014000F1F700C0000083E00E9453008FE891E0C7
:100150000197F1F700C0000083E00E9453008FE98F
:100160009FE00197F1F700C0000082E00E94530079
:100170008FE99FE00197F1F700C0000060E088E29E
:100180000E947B008FE99FE00197F1F700C000001B
:1001900060E08EE00E947B008FE99FE00197F1F71D
:1001A00000C00000809122018860809322016EE4EB
:1001B0000E945801809122018D7F809322016EE47C
:1001C0000E94580108950F931F93CF938C01C0E0B4
:1001D00004C061E00E947B00CF5FF801EC0FF11DCD
:1001E00080818111F6CFCF911F910F9108956623E1
:1001F00019F0613031F0089560E080680E947B0062
:100200000895805C60E080680E947B00089560E053
:1002100081E00E947B008FE19EE40197F1F700C02E
:100220000000089587B1806387B90E943E012FEFD7
:1002300080E792E0215080409040E1F700C000004C
:100240000E949A000E94070160E080E00E94F7008F
:1002500080E091E00E94E30061E080E00E94F7000E
:1002600081E191E00E94E3002FEF83E294EF2150BF
:1002700080409040E1F700C00000E4CF88E2809326
:10028000B800089584EA8093BC008091BC00882364
:10029000E4F708958093BB0084E88093BC008091CC
:1002A000BC008823E4F7089584E98093BC00089596
:1002B000CF93DF93C82FD62F0E9442018D2F0E942B
:1002C0004A018C2F0E944A010E945401DF91CF9174
:0602D0000895F894FFCF31
:1002D600546573744C43442032342E30312E303200
:1002E6000020436F646520546573742039393939A9
:0202F600000006
:00000001FF
