S013000054696C745F73656E736F722E737265637B
S113000033C0000044C0000042C0000040C00000F3
S11300103EC000003CC000003AC0000038C00000F0
S113002036C0000034C0000032C0000030C0000000
S11300302EC000002CC000002AC0000028C0000010
S113004026C0000024C0000022C0000020C0000020
S11300501EC000001CC000001AC0000018C0000030
S113006016C0000014C0000011241FBECFEFD8E05A
S1130070DEBFCDBF11E0A0E0B1E0ECE9F1E002C0E9
S113008005900D92A031B107D9F781D085C0B8CFC2
S113009084EA8093BC00ECEBF0E080818823ECF7E9
S11300A0089584E98093BC0080E18A95F1F700C04B
S11300B008958093BB0084E88093BC00ECEBF0E0EF
S11300C080818823ECF70895CF93C82FE1DF8EE475
S11300D0F0DF80E0EEDF8C2FECDFE3DF83EF91E0F5
S11300E00197F1F700C00000CF910895CF93C82F76
S11300F0CFDF8FE4DEDF80E4DCDF8C2FDADFD1DFDB
S113010080E18A95F1F700C0CF91089583ED90E3E3
S11301100197F1F700C0000080E3D6DF81EE94E0A0
S11301200197F1F700C0000080E3CEDF91E29A95D9
S1130130F1F7000080E3C8DF81E28A95F1F700005F
S113014080E2C2DF91E29A95F1F7000088E2BCDF19
S113015088E0BADF81E0B8DF83EF91E00197F1F73F
S113016000C0000086E0B0DF8CE0AEDF82E0ACCF00
S11301700895CF93DF93EC018881882329F0219699
S1130180B5DF89918111FCCFDF91CF910895BEDF56
S10F019080E091E0EEDFFFCFF894FFCF99
S113019C48656C6C6F2C20493243204C434421003D
S9030000FC
