S00B00004144432E7372656351
S11300000C9434000C943E000C943E000C943E007E
S11300100C943E000C943E000C943E000C943E0064
S11300200C943E000C943E000C943E000C943E0054
S11300300C943E000C943E000C943E000C943E0044
S11300400C943E000C943E000C943E000C943E0034
S11300500C943E000C943E000C943E000C943E0024
S11300600C943E000C943E0011241FBECFEFD8E048
S1130070DEBFCDBF0E9463000C946C000C940000A2
S113008081E085B984B90895109280008BE0809353
S1130090810084EC99E0909389008093880008950E
S11300A080E680937C0087E880937A000895ECE7EB
S11300B0F0E090818F70982B9083EAE7F0E08081E4
S11300C080648083FFCF0E9440000E9450000E9401
S10F00D0440080E00E945700F894FFCF29
S9030000FC
