:100000000C9434000C9463000C9446000C9446004D
:100010000C9446000C9446000C9446000C94460048
:100020000C9446000C9446000C9446000C9472000C
:100030000C9446000C9446000C9446000C94460028
:100040000C9446000C9446000C9446000C94460018
:100050000C9446000C9446000C9446000C94460008
:100060000C9446000C94460011241FBECFEFD8E03C
:10007000DEBFCDBF21E0A0E0B1E001C01D92A23003
:10008000B207E1F70E9481000C94A8000C940000D4
:100090008FEF84B985B984E08AB908951092800001
:1000A0008FE08093810089E09DE3909389008093A5
:1000B000880082E080936F00089581E08DBB82E02C
:1000C0008093690008951F920F920FB60F9211242A
:1000D0008F9381E0809301018F910F900FBE0F905D
:1000E0001F9018951F920F920FB60F9211248F93A5
:1000F00081E0809300018F910F900FBE0F901F90B1
:1001000018950E9448000E944E000E945D0078945D
:1001100015B880910001882319F0109200012D9AE2
:10012000189BF6CF15B85A9A80910101813061F47D
:1001300010920101299A2FEF83ED90E32150804026
:100140009040E1F700C000005A9810920101E0CF02
:04015000F894FFCF51
:00000001FF
