:100000000C9434000C9451000C9451000C94510049
:100010000C9451000C94AE010C9451000C945100BE
:100020000C9451000C9451000C9451000C9451000C
:100030000C9451000C9451000C9451000C945100FC
:100040000C9451000C9451000C9442010C945100FA
:100050000C9451000C9451000C9451000C945100DC
:100060000C9451000C94510011241FBECFEFD8E026
:10007000DEBFCDBF11E0A0E0B1E0E6E9F4E002C0F0
:1000800005900D92A232B107D9F721E0A2E2B1E0CA
:1000900001C01D92A433B207E1F70E94E1010C9464
:1000A00049020C940000CF93C82FC295C07F809165
:1000B00022018460809322016EE40E94380287EC62
:1000C00090E00197F1F700C00000809122016EE4FA
:1000D0008C2B0E943802809122018B7F8093220119
:1000E0006EE40E94380287EC90E00197F1F700C0BF
:1000F0000000CF910895CF93C82F611109C080915E
:1001000022018E7F809322016EE40E94380208C093
:10011000809122018160809322016EE40E94380266
:100120008C2F82958F700E9453008C2F0E94530059
:10013000CF91089583E00E9453008FE19EE40197E0
:10014000F1F700C0000083E00E9453008FE891E0C7
:100150000197F1F700C0000083E00E9453008FE98F
:100160009FE00197F1F700C0000082E00E94530079
:100170008FE99FE00197F1F700C0000060E088E29E
:100180000E947B008FE99FE00197F1F700C000001B
:1001900060E08FE00E947B008FE99FE00197F1F71C
:1001A00000C00000809122018860809322016EE4EB
:1001B0000E943802809122018D7F809322016EE49B
:1001C0000E94380208950F931F93CF938C01C0E0D3
:1001D00004C061E00E947B00CF5FF801EC0FF11DCD
:1001E00080818111F6CFCF911F910F9108956623E1
:1001F00019F0613031F0089560E080680E947B0062
:100200000895805C60E080680E947B00089560E053
:1002100081E00E947B008FE19EE40197F1F700C02E
:10022000000008958FEF84B915B892E09AB98BB9A0
:1002300087B1806387B9E8E6F0E0808184608083DD
:10024000EDE6F0E080818068808308951092C5001B
:1002500087E68093C40080E28093C00088E98093A1
:10026000C10086E08093C20008959091C00095FF80
:10027000FCCF8093C600089581E08DBB82E080931F
:10028000690008951F920F920FB60F9211242F93B9
:100290003F934F935F936F937F938F939F93AF930E
:1002A000BF93EF93FF938091C600883039F581E6C4
:1002B0000E94350160E080E10E947B008091230173
:1002C000882359F080912301815080932301E0918C
:1002D0002301F0E0EC5DFE4F108260E080E00E94C0
:1002E000F70080E091E00E94E30061E080E00E947E
:1002F000F70084E291E00E94E3001FC09091230187
:100300009F30D8F4E0912301F0E0EC5DFE4F808354
:10031000809123018F5F8093230160E080E00E9441
:10032000F70080E091E00E94E30061E080E00E943D
:10033000F70084E291E00E94E300FF91EF91BF910A
:10034000AF919F918F917F916F915F914F913F916D
:100350002F910F900FBE0F901F9018951F920F9224
:100360000FB60F9211242F933F934F935F936F9388
:100370007F938F939F93AF93BF93EF93FF9380E10E
:10038000E4E2F1E0DF011D928A95E9F71092230182
:100390000E9407018FE39FE10197F1F700C0000081
:1003A000FF91EF91BF91AF919F918F917F916F914D
:1003B0005F914F913F912F910F900FBE0F901F9023
:1003C00018950E9412010E9426010E943C01789417
:1003D0000E941E022FEF89EF90E021508040904054
:1003E000E1F700C000000E949A00F8940E94070103
:1003F0002FEF89EF90E0215080409040E1F700C05E
:10040000000078940E9407012FEF89EF90E02150BF
:1004100080409040E1F700C0000060E080E00E9472
:10042000F7008EE091E00E94E30061E080E00E942E
:10043000F70089E191E00E94E300E4CF88E2809335
:10044000B800089584EA8093BC008091BC008823A2
:10045000E4F708958093BB0084E88093BC0080910A
:10046000BC008823E4F7089584E98093BC000895D4
:10047000CF93DF93C82FD62F0E9422028D2F0E9488
:100480002A028C2F0E942A020E943402DF91CF910F
:060490000895F894FFCF6F
:100496005265636569766564446174613A00323019
:1004A60032342E30312E303800393939393939392C
:0204B60039000B
:00000001FF
