:100000000C9434000C943E000C943E000C943E0082
:100010000C943E000C943E000C943E000C943E0068
:100020000C943E000C943E000C943E000C943E0058
:100030000C943E000C943E000C943E000C943E0048
:100040000C943E000C943E000C943E000C943E0038
:100050000C943E000C943E000C943E000C943E0028
:100060000C943E000C943E0011241FBECFEFD8E04C
:10007000DEBFCDBF0E945B000C9467000C940000B3
:100080008FEF84B985B90895109280008BE080933A
:10009000810084EC99E09093890080938800089512
:1000A00094E606C0B19BFECF86B3826086BB9150BA
:1000B0009111F8CF08950E9440000E9444008FEFF4
:1000C00085B90E94500015B80E945000F8CFF894EE
:0200D000FFCF60
:00000001FF
