S00E000054696D6572302E73726563E5
S11300000C9434000C9446000C9446000C94460066
S11300100C9446000C9446000C9446000C94460044
S11300200C9446000C9446000C9446000C94460034
S11300300C9446000C9446000C9446000C94460024
S11300400C9446000C9446000C9446000C94460014
S11300500C9446000C9446000C9446000C94460004
S11300600C9446000C94460011241FBECFEFD8E038
S1130070DEBFCDBF21E0A0E0B1E001C01D92A13000
S1130080B207E1F70E944C000C947F000C9400002E
S11300908FEF85B984B908950E94480014BC85E0A7
S11300A085BD84E686BD84E6809300018FEF85B923
S11300B00CC0A89BFECF84E686BD85B3816085BB5A
S11300C08091000181508093000180910001811191
S11300D0F0CF15B884E6809300010CC0A89BFECF36
S11300E084E686BD85B3816085BB80910001815023
S11300F080930001809100018111F0CFD4CFF89456
S1050100FFCF2B
S9030000FC
