:100000000C9434000C943E000C943E000C943E0082
:100010000C943E000C943E000C943E000C943E0068
:100020000C943E000C943E000C943E000C943E0058
:100030000C943E000C943E000C943E000C943E0048
:100040000C943E000C943E000C943E000C943E0038
:100050000C943E000C943E000C943E000C943E0028
:100060000C943E000C943E0011241FBECFEFD8E04C
:10007000DEBFCDBF0E9478000C948A000C94000073
:100080008FEF84B985B992E09AB98BB9089510922F
:10009000C50087E68093C40080E28093C00088E1B9
:1000A0008093C10086E08093C20008959091C000C3
:1000B00095FFFCCF9091C00095FFFCCF8093C600C8
:1000C0000895109280008BE08093810088EE93E089
:1000D0009093890080938800089594E606C0B19BB0
:1000E000FECF86B3826086BB91509111F8CF089500
:1000F0000E9440000E9447000E9461000E946D0023
:1001000085B185B981E40E94560085B185B90E9408
:080110006D00F6CFF894FFCF5B
:00000001FF
