:100000000C9434000C9499000C9446000C94460017
:100010000C9446000C9446000C9446000C94460048
:100020000C9446000C9446000C9446000C94460038
:100030000C9446000C9446000C9446000C94460028
:100040000C9446000C9446000C9489000C944600D5
:100050000C9446000C9446000C9446000C94460008
:100060000C9446000C94460011241FBECFEFD8E03C
:10007000DEBFCDBF21E0A0E0B1E001C01D92A23003
:10008000B207E1F70E94A8000C94D1000C94000084
:100090008FEF84B915B892E09AB98BB90895109290
:1000A000C50087E68093C40080E28093C00080E9A9
:1000B0008093C10086E08093C20008959091C000B3
:1000C00095FFFCCF8093C6000895109280008BE0CE
:1000D0008093810084EC99E090938900809388005C
:1000E0000895B19BFECFB19A08958AE0B19BFECFEF
:1000F000B19A8150D9F7089584E6B19BFECFB19AA9
:100100008150D9F7089581E08DBB82E0809369002A
:1001100008951F920F920FB60F9211248F93809122
:10012000C600809301018F910F900FBE0F901F901A
:1001300018951F920F920FB60F9211248F9381E0A2
:10014000809300018F910F900FBE0F901F90189514
:100150000E9448000E944F000E9483000E94650098
:100160000E947C00789415B81092010181E40E94ED
:100170005E00189B0DC02D9A80910001813041F4E2
:1001800081E40E945E0080EA8A95F1F710920001F6
:1001900080910101882339F3299A2D9A0E947C00CD
:0601A000E2CFF894FFCF4E
:00000001FF
