:100000000C9434000C946A000C9446000C94460046
:100010000C9446000C9446000C9446000C94460048
:100020000C9446000C9446000C9446000C94460038
:100030000C9446000C9446000C9446000C94460028
:100040000C9446000C9446000C9446000C94460018
:100050000C9446000C9446000C9446000C94460008
:100060000C9446000C94460011241FBECFEFD8E03C
:10007000DEBFCDBF21E0A0E0B1E001C01D92A13004
:10008000B207E1F70E9479000C9496000C940000EE
:100090008FEF84B985B984E08AB908951092800001
:1000A0008BE08093810088EE93E0909389008093A9
:1000B000880008952FEF83ED90E321508040904019
:1000C000E1F700C00000089581E08DBB82E08093DD
:1000D000690008951F920F920FB60F9211248F930B
:1000E00081E0809300018F910F900FBE0F901F90C1
:1000F00018950E9448000E944E000E946400789467
:1001000015B8189B10C05A9A80910001813051F4A3
:10011000299A2FEF83ED90E3215080409040E1F742
:1001200000C000005A9810920001EACFF894FFCF67
:00000001FF
