:100000000C9434000C9446000C9446000C9446006A
:100010000C9446000C9446000C9446000C94460048
:100020000C9446000C9446000C9446000C94460038
:100030000C9446000C9446000C9446000C94460028
:100040000C9446000C9446000C945E000C94460000
:100050000C9446000C9446000C9446000C94460008
:100060000C9446000C94460011241FBECFEFD8E03C
:10007000DEBFCDBF21E0A0E0B1E001C01D92A53000
:10008000B207E1F70E94D9000C94FB000C94000029
:100090008FEF84B915B892E09AB98BB90895109290
:1000A000C50087E68093C40080E28093C00080E9A9
:1000B0008093C10086E08093C20008951F920F9242
:1000C0000FB60F9211240F931F932F933F934F93CB
:1000D0005F936F937F938F939F93AF93BF93EF93B0
:1000E000E091C60080ED8E0F8A3020F5209101014D
:1000F000309102014091030150910401AAE0B0E067
:100100000E94E1002E2FEE0F330B2053310989019D
:10011000330F220B330BDC01CB01800F911FA21F89
:10012000B31F8093010190930201A0930301B09348
:10013000040105C0EA3019F481E080930001EF91D9
:10014000BF91AF919F918F917F916F915F914F91EF
:100150003F912F911F910F910F900FBE0F901F9005
:10016000189580910001882319F1809101019091E7
:100170000201A0910301B09104010197A105B1050D
:1001800011F4299A01C02B9A2D9A2FEF83ED90E359
:10019000215080409040E1F700C000001092010122
:1001A00010920201109203011092040110920001BA
:1001B00008950E9448000E944F0078940E94B10068
:1001C000FDCF0E94EC00A59F900DB49F900DA49FC1
:1001D000800D911D11240895A29FB001B39FC0010D
:1001E000A39F700D811D1124911DB29F700D811D63
:0A01F0001124911D0895F894FFCF2B
:00000001FF
